:060000000A128A110C280F
:10000800FE00030EF1000A08F2000A128A11792B89
:100018000A128A110F280A128A11A5230A128A11B4
:10002800F900F601F701F80183010A128A11202A62
:10003800FF1B262883137F1883170008840A0319D7
:10004800FF0A08007F087F398A000408840A031918
:04005800FF0A820019
:10020000563461346C346F347234203469346E3453
:100210006734723465347334613464346F34203439
:1002200070346F34723420347434653463346C3415
:10023000613464346F34203465346E342034413496
:1002400053344334493449342C34203476346934BB
:100250007334693462346C346534203465346E34FC
:10026000203450344F345234543442342E34003419
:10027000503472346534733469346F346E34653499
:1002800020346334753461346C34713475346934BA
:100290006534723420347434653463346C346134BE
:1002A00020347034613472346134203472346534F3
:1002B0006734723465347334613472342034613499
:1002C0006C3420346D3465346E3475342E3400341F
:1002D000563461346C346F34723420346434653491
:1002E000203470346F34743465346E34633469345C
:1002F000F3346D346534743472346F3420342834FC
:1003000030342D34323435343534293420346534A6
:100310006E34203450344F345234543442342E34FA
:10032000003432342E342034563461346C346F341B
:100330007234203465346E342034413453344334C1
:10034000493449342034643465342034763461349B
:100350006C346F34723465347334203474346534DF
:1003600063346C34613464346F34003469346E3413
:10037000763461346C34693464346F342E34203410
:10038000503472346534733469346F346E34653488
:1003900020346334753461346C34713475346934A9
:1003A0006534723420347434653463346C346134AD
:1003B000003449346E3467347234653473346534D0
:1003C000203427343034273420347034613472348C
:1003D000613420347234653469346E346934633482
:1003E00069346134723420346D3465346E3475345C
:1003F0002E34003451347534E93420346434653497
:1004000073346534613420347234653461346C344F
:1004100069347A34613472343A34003431342E34ED
:1004200020344C346534633474347534723461343C
:10043000203464346534203470346F3474340034C0
:100440000A128A11DB220A128A112D2A0A128A1133
:1004500028230A128A11F901F80179030319312AB4
:10046000322A262A7803031D362A372A2D2A831298
:1004700003130C1E3C2A3D2A372A77089900313095
:100480007706031D442A452A7D2A0A128A119C23D5
:100490000A128A116830F3008130F4000A128A11BE
:1004A00053230A128A110A128A119C230A128A11F2
:1004B0003830F3008130F4000A128A1153230A12F3
:1004C0008A110A128A119C230A128A11762A83122F
:1004D00003139F186C2A6D2A762AC3309F050330B8
:1004E000F500F50B712A831203139F143130770640
:1004F00003197B2A7C2A672ACD2A32307706031D0E
:10050000822A832AB02A0A128A119C230A128A118B
:100510000030F3008130F4000A128A1153230A12CA
:100520008A110A128A119C230A128A11D930F30007
:100530008130F4000A128A1153230A128A110A1216
:100540008A119C230A128A11A92A7708831203139D
:10055000860030307706031DAE2AAF2AA52ACD2AA1
:100560007708F5007508F6000A128A119C230A1212
:100570008A11B630F3008130F4000A128A11532335
:100580000A128A110A128A119C230A128A11760809
:1005900077060319CC2ACD2AC72A831203130C1E0F
:1005A000D22AD32ACD2A0C309900F901F90A2D2A32
:1005B0000A128A110C28013083160317880089015A
:1005C000013083160313850086018312031385010E
:1005D0008601831603130F088F3940388F000F14DC
:1005E000831203131F083F3940389F0083160313FB
:1005F0001F129F12C330831203139F058316031328
:100600009F13831203131F140330F300F30B062B05
:1006100083160313181218158316031787158316EC
:1006200003139A01193099008312031398171813B2
:100630008316031398168312031318168B170B17C0
:10064000831603138C160C17831203130C13080064
:10065000FA30F3008130F4000A128A1153230A128F
:100660008A110A128A119C230A128A110E30F30091
:100670008230F4000A128A1153230A128A110A12D4
:100680008A119C230A128A119130F3008130F40000
:100690000A128A1153230A128A110A128A119C2300
:1006A0000A128A110800682B0C1E572B582B542B4A
:1006B0007408FF00730884000A128A111C200A12B1
:1006C0008A1199000130F3070318F40A0030F40787
:1006D000740883120313FF00730884000A128A113E
:1006E0001C200A128A11003A031D772B782B542BF9
:1006F0000800831203138C1E7E2B7F2B852B1A0878
:10070000F0007008F700F801F80A0C1F882B892BFD
:10071000952B1F0CF000700C0F39003A031D912B24
:10072000922B942B1E0886000C1372088A00710EFF
:100730008300FE0E7E0E0900831203130C1EA12BF4
:0C074000A22B9C2B0D3099000800013406
:08400000FF3FFF3FFF3FFF3FC0
:04400E00D420FF3F7C
:00000001FF
